:020000040800F2
:10000000A808002089010008E3210008DF1E00087D
:10001000E1210008D503000889280008000000003D
:100020000000000000000000000000002D23000878
:100030000F040008000000002B2300082F230008F5
:10004000A3010008A3010008A3010008A301000800
:10005000A3010008A3010008A3010008A3010008F0
:10006000A3010008A3010008A3010008D9030008A8
:10007000A3010008A3010008A3010008A3010008D0
:10008000A3010008A3010008A3010008A3010008C0
:10009000A3010008A3010008A3010008A3010008B0
:1000A000A3010008A3010008A3010008A3010008A0
:1000B000A3010008A3010008AD230008A301000864
:1000C000A3010008A3010008A3010008A301000880
:1000D000A30100087D280008A3010008A30100086F
:1000E000A3010008A3010008A301000800F002F822
:1000F00000F03AF80AA090E8000C82448344AAF188
:100100000107DA4501D100F02FF8AFF2090EBAE885
:100110000F0013F0010F18BFFB1A43F0010318473B
:100120006031000080310000103A24BF78C878C1E7
:10013000FAD8520724BF30C830C144BF04680C60ED
:10014000704700000023002400250026103A28BF35
:1001500078C1FBD8520728BF30C148BF0B60704739
:100160001FB51FBD10B510BD00F058F81146FFF7C0
:10017000F7FF02F001FC00F076F803B4FFF7F2FF9E
:1001800003BC00F07DF8000009488047094800479B
:10019000FEE7FEE7FEE7FEE7FEE7FEE7FEE7FEE737
:1001A000FEE7FEE704480549054A064B7047000094
:1001B000AB230008ED000008A8020020A8080020DA
:1001C000A8040020A80400204FF0000200B5134648
:1001D00094469646203922BFA0E80C50A0E80C5067
:1001E000B1F12001BFF4F7AF090728BFA0E80C5018
:1001F00048BF0CC05DF804EB890028BF40F8042B11
:1002000008BF704748BF20F8022B11F0804F18BF7D
:1002100000F8012B7047704770477047754600F033
:100220002BF8AE4605006946534620F00700854688
:1002300018B020B5FFF7B6FFBDE820404FF000062C
:100240004FF000074FF000084FF0000B21F00701BE
:10025000AC46ACE8C009ACE8C009ACE8C009ACE801
:10026000C0098D46704710B50446AFF300802046A4
:10027000BDE81040FFF781BF0048704748020020EA
:1002800001491820ABBEFEE72600020070470000BF
:1002900070B5044600688168C943C90717D18168F1
:1002A00021F00101816000F01BFD05460AE000BF5E
:1002B00000F016FD401B022804D920688068C04366
:1002C000C00706D020688068C043C007F0D0002077
:1002D00070BDA06A40F01000A062E06A40F001002A
:1002E000E062012070BD10B50146406A826A12F0DA
:1002F000500F05D0006A026BBDE810400846104759
:10030000816A41F40071816201688968C1F34241E8
:1003100007290CD1017B51B9816A21F48071816276
:10032000816AC90403D4816A41F00101816200F04D
:10033000EFF810BD10B5406A816A41F0400181625A
:10034000C16A41F00401C16200F0E4F810BD10B5CB
:10035000406A00F0DEF810BDF8B5002604460096AD
:1003600000688168C943C9072DD0816841F0010147
:100370008160164816490068B0FBF1F000E0401EAD
:1003800000900028FBD100F0ABFC054616E000BF52
:1003900000F0A6FC401B022810D920688068C043EA
:1003A000C0070BD0A06A40F01000A062E06A40F0E5
:1003B0000100E06284F824600120F8BD20688068B4
:1003C000C043C007E4D10020F8BD00003C0000207D
:1003D00040420F00FEE70000014800F069BA00004B
:1003E0000402002030B590F840500124AC40C56BA9
:1003F0006C60046863604368102B036803D09960E5
:100400000068C26030BD9A600068C16030BD70474E
:1004100072B6FEE7F8B50024009490F82420254633
:10042000012A12D0012280F824204A681F23072ABB
:100430000DD20668776B521E02EB820293409F43F7
:100440000B6893401F43776319E00220F8BD0668EC
:100450000D2A0AD2376BD21F02EB820293409F43D0
:100460000B6893401F43376309E0F76A0D3A02EBCC
:10047000820293409F430B6893401F43F7620A68D0
:10048000072306680A2A0AD3F7680A3A02EB4202EF
:1004900093409F438B6893401F43F76008E03769A0
:1004A00002EB420293409F438B6893401F433761A6
:1004B0000A68102A01D0112A20D1124B02689A42F0
:1004C00017D193681B0219D4936843F40003936017
:1004D0000968102912D10C490C4A0968B1FBF2F1E4
:1004E00001EB8101490000E0491E00910029FBD188
:1004F00004E0816A41F020018162012480F82450E7
:100500002046F8BD002401403C00002040420F007E
:1005100070477047704700002DE9F0414FF0000729
:1005200004003D467ED0A06A002628B9E66284F821
:100530002460204600F07EF82046FFF7A9FEA16A5D
:10054000C90600D420B1A06A40F01000A06269E0A2
:10055000A16A21F4885141F00201A1626268E16957
:10056000237B0A4347EA43010A43A1684FF480779B
:10057000B94209D0012907D05FF0000194F814C0F6
:10058000BCF1010F02D00AE03946F7E7F3B1A36AE4
:1005900043F02003A362E36A43F00103E3622368AC
:1005A000D3F804C02CF4694C4CEA010CC3F804C025
:1005B00021688B68DFF870C003EA0C0313438B607B
:1005C000A168B9420BD0012909D00CE0DFF85CC06A
:1005D000A3690CEB43330B4343F40061DFE7218A4B
:1005E0000D05A5F580152168CB6A23F470032B4314
:1005F000CB62216889680E4B1940914208D1E662AE
:10060000A16A21F0020141F00101A162BDE8F0817F
:10061000A06A20F0020040F01000A062E06A40F002
:100620000100E0620120F1E7FDF7E1FF00E0FFFFDC
:10063000FE0E1FFF70B586B0002605460096019697
:100640000296039600681A4988422FD11949886991
:1006500040F400708861886900F400700490886933
:1006600040F0040088618869694600F00400049045
:10067000FF200090032001900F4800F03BFA104C3F
:100680000E48C4E900068020C4E9026040002061F1
:10069000800060612020A0610002E061204600F03F
:1006A000B1F908B1FFF7B4FE2C62656206B070BD07
:1006B00000240140001002400008014008000240F0
:1006C000040200202DE9F047894604463B490068B2
:1006D0003B4F0E1D9046884201D0B84207D130688A
:1006E00010F4702F03D001252846BDE8F08794F858
:1006F000240001280CD0012084F824002046FFF7B4
:100700002BFE05004FF0000004D084F82400EBE736
:100710000220EAE7A16A40F60162914341F4807148
:10072000A1622168B94218D1326812F4702F14D036
:10073000A16A41F48011A1623168490505D5A16A19
:1007400021F4005141F48051A162A16AC9040AD583
:10075000E16A21F00601E16206E0A26A22F4801259
:10076000A2624968E9E7E06284F82400216A15483A
:100770008862216A1448C862216A144808632168A3
:100780006FF0020008602068816841F48071816028
:10079000216843464A464C31206A00F061F92068DE
:1007A0008168C1F342410729816803D041F4801177
:1007B000816099E741F4A001FAE7000000240140BC
:1007C00000280140E70200084F0300083503000835
:1007D00010B590F821100022022905D00421816370
:1007E00080F82020012010BD01680B6823F00E0363
:1007F0000B6001680B6823F001030B6090F8403038
:10080000C46B012101FA03F3636080F8211080F8C2
:100810002020104610BD000010B590F821100024D3
:10082000022903D00421816301243DE001680A68A4
:1008300022F00E020A6001680A6822F001020A60D2
:100840001A4A0168914201D1012121E0174A14326C
:10085000914201D110211BE0144A2832914201D16A
:10086000891515E0114A3C32914201D189140FE0FB
:100870000E4A5032914202D14FF4803108E00B4AC7
:100880006432914202D14FF4801101E04FF0807147
:10089000064A083A5160012180F82110002180F8B1
:1008A0002010416B01B18847204610BD080002406E
:1008B0002DE9F05FC16B0C6801680B68D0F840C08F
:1008C000042202FA0CF2494DDFF824A1494E4A4FA6
:1008D000DFF828B1DFF828E122422CD05A072AD5C8
:1008E0000A68920603D40A6822F004020A600168CA
:1008F000A94201D1042219E0514501D1402215E05D
:10090000B14202D14FF4806210E0B94202D14FF4FB
:1009100080420BE0594502D14FF4802206E0714538
:1009200002D14FF4800201E04FF080622F49083974
:100930004A60C16A3BE04FF0020808FA0CF818EA76
:10094000040F4FF000094FF0010235D05FEA8378C1
:1009500032D50B689B0605D40B6823F00A030B60A5
:1009600080F821200168A94201D1022219E05145F5
:1009700001D1202215E0B14202D14FF4007210E003
:10098000B94202D14FF400520BE0594502D14FF465
:10099000003206E0714502D14FF4001201E04FF041
:1009A0000072124908394A6080F82090816A002953
:1009B0001AD0BDE8F05F0847082505FA0CF5254276
:1009C00012D01B0710D50B6823F00E030B6090F8B4
:1009D0004010C36B02FA01F15960826380F8212054
:1009E00080F82090016BE2E7BDE8F09F080002402C
:1009F0001C00024030000240440002405800024007
:100A00006C00024030B528B308C8134914221944B9
:100A1000B1FBF2F18900C163104981630221417782
:100A20001A6843F6F0718A43D0E900142143D0E9F3
:100A300002452C43214304692143446921438469CD
:100A4000214311431960002141630122427701775C
:100A5000084630BD012030BDF8FFFDBF0000024058
:100A600070B5044690F82000002501280CD0012024
:100A700084F8200094F821600020012E06D084F82C
:100A800020000225284670BD022070BD022684F891
:100A90002160A0632068066826F0010606602046F3
:100AA000FFF7A0FCE06A00282068016802D041F04E
:100AB0000E0106E021F0040101602068016841F0A8
:100AC0000A0101602068016841F001010160D9E775
:100AD00070B5044600F004F90546601C02D00448D5
:100AE0000078044400F0FCF8401BA042FAD370BD2B
:100AF000300000202DE9F84FDFF8B8910024A9F16B
:100B0000040B23460F2709F1040AABF1040EC9E0D8
:100B10000125A5402A40AA427DD1674ED1F804C0E4
:100B2000ACEB0608B44532D014DCBCF1030F3AD06C
:100B300009DCBCF1000F2AD0BCF1010F1CD0BCF1C4
:100B4000020F31D11DE0BCF1110F17D0BCF1120F13
:100B50002AD119E0B8F5881F19D006DCB8F5803F16
:100B600015D0B8F5801F1FD111E0B8F5001F0ED0C9
:100B7000B8F5041F18D10AE0CB6815E0CB681B1D3F
:100B800012E0CB6808330FE0CB680C330CE08B68C5
:100B90002BB1012B4FF0080303D0456104E004237F
:100BA00002E0056100E00023FF2A01D8064601E0CB
:100BB00000F104064FEA840501D9A5F12005D6F815
:100BC000008007FA05FC28EA0C0803FA05F548EA54
:100BD0000508C6F800804D68ED0062D5374DAE6956
:100BE00046F00106AE61AD6924F0030605F001058B
:100BF0000095334D06EB050CDCF80850A607360FC0
:100C000007FA06F825EA0805DFF8B880404503D161
:100C10004FF0000817E044E0DFF8AC80404502D117
:100C20004FF001080FE0DFF8A480404502D14FF0FB
:100C3000020808E0DFF89880404502D14FF0030831
:100C400001E04FF0040808FA06F848EA0508CCF875
:100C500008804D68D9F80060ED024D4601D5164375
:100C600000E096432E604D68DAF80060AD0255460C
:100C700001D5164300E096432E604D68DBF8006016
:100C8000AD035D4601D5164300E096432E604D68E6
:100C9000DEF80060ED03754601D5164300E096438B
:100CA0002E60641C0D682A46E5407FF431AFBDE834
:100CB000F88F0000080401400000111000100240ED
:100CC0000000014000080140000C014000100140FC
:100CD000001401400AB1016170470904FBE70000FC
:100CE0000148806870470000300000200248816899
:100CF000027811448160704730000020074810B529
:100D0000016841F010010160032000F075F80F2028
:100D100000F006F800F024F8002010BD002002408A
:100D200070B50D4D04464FF47A712878B1FBF0F0A0
:100D30000A490968B1FBF0F000F052FB48B9102CE9
:100D400007D200222146501E00F036F800206C60C9
:100D500070BD012070BD0000300000203C0000206C
:100D60000C4808B5816941F001018161816901F098
:100D700001010091C16941F08051C161C06900F079
:100D8000805000900448416821F0E06141F000711A
:100D9000416008BD0010024000000140002809DB4E
:100DA00000F01F02012191404009800000F1E02085
:100DB000C0F8001170470000F0B40E4B1B680C46E1
:100DC000C3F30223C3F10705042D00D90425191D1F
:100DD000072901D2002300E0DB1E012606FA05F1F7
:100DE000491E214099409E40761E16403143F0BC7A
:100DF00001F04BBD0CED00E0064900F00702086869
:100E00004FF6FF03184040EA0220034A10430860EF
:100E1000704700000CED00E00000FA052DE9F843F2
:100E200005460078354CC00754D0E0690026C00064
:100E300008D4E06940F08050E061E069012600F0EC
:100E4000805000902E480168C90512D40168804680
:100E500041F480710160FFF743FF074605E000BFE2
:100E6000FFF73EFFC01B642823D8D8F80000C00558
:100E7000F6D5206A10F4407021D0A98801F44071A1
:100E800081421CD0206A1F49012220F440700A6070
:100E900000220A602062C00711D0FFF721FF074639
:100EA00041F2883808E000BFFFF71AFFC11B414537
:100EB00002D90320BDE8F883206A8007F4D5206AB0
:100EC000696820F44070084320621EB1E06920F098
:100ED0008050E0612878800705D56068A96820F413
:100EE0004040084360602878C00605D56068E9681E
:100EF00020F48000084360600020DBE7001002401F
:100F000000700040400442422DE9F0470F460500C2
:100F100061D0434E306800F00700B84209D2306813
:100F200020F0070038433060306800F00700B84216
:100F300051D128683B4C810712D5400703D5606822
:100F400040F4E06060602878000703D5606840F4F2
:100F5000605060606068A96820F0F000084360603D
:100F60002878C00728D06868012810D02168022896
:100F700010D0890700292EDA616821F003010143AE
:100F80006160FFF7ADFE804641F288390DE02168CF
:100F90008903EFE78901EDE7FFF7A2FEA0EB080167
:100FA000494502D90320BDE8F0876068696800F010
:100FB0000C00B0EB810FEFD1306800F00700B842B1
:100FC0000BD9306820F0070038433060306800F0FB
:100FD0000700B84201D00120E5E72878400705D591
:100FE0006068E96820F4E0600843606028780007E2
:100FF00006D56068296920F4605040EAC10060604D
:1010000000F038F86168084AC1F30311515CC84028
:101010000649086006480068FFF782FE0020C2E724
:101020000020024000100240683200083C0000200E
:10103000340000200448054900684968044AC1F3A7
:101040000221515CC84070473C0000200010024063
:10105000783200080448054900684968044AC1F329
:10106000C221515CC84070473C0000200010024083
:10107000783200080E4A51680E4801F00C03042B28
:1010800011D0082B0FD10C48C1F38343C903C05CB6
:101090000AD55168084AC1F34041921E515C054A85
:1010A0005043B0FBF1F070470449484370470000DB
:1010B0000010024000127A005832000800093D007A
:1010C0002DE9F84F040070D02078C04DC00749D0FA
:1010D0006868C0F38100012807D06868C0F3810008
:1010E000022809D16868C00306D52868800339D56D
:1010F00060680028E7D035E06068B0F5803F0BD02D
:1011000010B1B0F5A02F11D0286820F480302860ED
:10111000286820F4802002E0286840F480302860AD
:10112000606890B1FFF7DCFD06460AE0286840F4ED
:1011300080202860F0E700BFFFF7D2FD801B642805
:1011400073D828688003F7D50CE0FFF7C9FD064681
:1011500005E000BFFFF7C4FD801B6428F0D82868B5
:101160008003F7D420789A4E80074FF001094FF0A2
:10117000000839D5686810F00C0F07D06868C0F314
:101180008100022809D16868C00306D42868800756
:1011900014D52069012808D110E02069B0B1C6F843
:1011A0000090FFF79DFD074605E00AE1FFF798FD77
:1011B000C01B0228C4D828688007F7D52868616951
:1011C00020F0F80040EAC10028600DE0C6F8008079
:1011D000FFF786FD074604E0FFF782FDC01B0228EB
:1011E00023D828688007F7D4207800072CD57948C1
:1011F000A169D9B1C0F80090FFF772FD074604E07D
:10120000FFF76EFDC01B02280FD8686A8007F7D56C
:1012100071484FF4FA510068B0FBF1F0009000BF44
:101220000098411E0091FAD20EE080E0C0F80080E4
:10123000FFF756FD074604E0FFF752FDC01B0228EA
:1012400075D8686A8007F7D42078400760D5E869C8
:101250000027C00008D4E86940F08050E861E869E0
:10126000012700F0805000905C480168C90513D444
:101270000168834641F480710160FFF731FD8246C9
:1012800006E000BFFFF72CFDA0EB0A0064284ED853
:10129000DBF80000C005F5D5E06801280AD008B1E8
:1012A000052813D0286A20F001002862286A20F05F
:1012B000040002E0286A40F001002862E06841F280
:1012C000883B98B1FFF70CFD82460BE0286A40F09E
:1012D00004002862EEE700BFFFF702FDA0EB0A0161
:1012E00059455AD8286A8007F6D50CE0FFF7F8FC74
:1012F000824605E0FFF7F4FCA0EB0A0159454CD803
:10130000286A8007F6D41FB1E86920F08050E861B0
:10131000E06988B36968C1F38101022944D00228D9
:10132000C6F8608004D0FFF7DBFC044638E034E008
:10133000FFF7D6FC074604E0FFF7D2FCC01B0228EB
:101340002BD828688001F7D4206AB0F5803F05D1FA
:101350006868A16820F4003008436860D4E9080197
:101360000843696821F4741108436860C6F8609006
:10137000FFF7B6FC044606E025E000BFFFF7B0FC2F
:10138000001B022809D828688001F7D51BE000BFA0
:10139000FFF7A6FC001B022802D90320BDE8F88F46
:1013A00028688001F4D40EE00128F7D06868226A2A
:1013B00000F48031914204D1616A00F470108842D7
:1013C00001D00120EAE70020E8E700000010024019
:1013D00000004242800442423C0000200070004075
:1013E00010B5401EB0F1807F01D3012010BD4FF039
:1013F000E02460610F21601701F047FA0020A0612E
:1014000007202061002010BD7047704770B590F82C
:101410003C20012A26D0012480F83C40022280F89A
:101420003D2003685A689D6822F070060A683243BE
:101430005A600D4B02689A4208D0B2F1804F05D035
:101440000A4B9A4202D00A4B9A4204D1496825F0CD
:1014500080031943916080F83D40002180F83C10E2
:10146000084670BD022070BD002C01400004004001
:101470000008004010B5040003D094F83D0010B1FE
:1014800007E0012010BD002084F83C00204600F059
:101490001FF8022084F83D00211D206800F08CFF19
:1014A000012084F8460084F83E0084F83F0084F868
:1014B000400084F8410084F8420084F8430084F836
:1014C000440084F8450084F83D00002010BD000071
:1014D00008B5114A01681148914208D1816941F467
:1014E00000618161806900F40060009008BD0C4AD1
:1014F0009142FBD1C16941F00401C161C069002280
:1015000000F00400009011461E20FFF755FCBDE8D6
:1015100008401E20FFF742BC002C01400010024092
:101520000008004090F83D10012901D001207047CB
:10153000022180F83D1000680B49884208D0B0F1C4
:10154000804F05D00949884202D00949884204D118
:10155000816801F00701062903D0016841F001010B
:101560000160002070470000002C01400004004092
:101570000008004090F83D10012901D0012070477B
:10158000022180F83D100168CA6842F00102CA6079
:1015900000680B49884208D0B0F1804F05D0094956
:1015A000884202D00849884204D1816801F00701CD
:1015B000062903D0016841F0010101600020704755
:1015C000002C0140000400400008004070B50446B3
:1015D00090F83C000025012817D0012684F83C60D3
:1015E000022084F83D002068826822F0770222F40D
:1015F0007F4282600868502838D00DDC20284FD008
:1016000005DC90B3102811D14AE0022070BD3028CB
:1016100046D040280AD13BE060282FD070280DD05A
:10162000B0F5805F03D0B0F5005F12D0012584F8DB
:101630003D60002084F83C00284670BDCB68D1E9AD
:101640000121206800F001FF2068816841F07701E6
:1016500009E0CB68D1E90121206800F0F6FE20689E
:10166000816841F480418160E1E719E0CA68496816
:10167000206800F09FFF5021206806E0CA68496892
:10168000206800F0A8FF6021206800F0E8FECEE7A7
:10169000CA684968206800F08DFF40212068F4E79F
:1016A000226801461046F0E770472DE9F0410446F4
:1016B0000068C66805694FF00007A90713D5B10790
:1016C00011D5F91E0161012020772068806980070B
:1016D000204602D0FFF7E8FF04E000F0C5F82046FE
:1016E00000F06AF92777680716D5700714D52168C6
:1016F0006FF004000861022020772068806910F4F0
:10170000407F204602D0FFF7CFFF04E000F0ACF8A6
:10171000204600F051F92777280715D5300713D553
:1017200021686FF008000861042020772068C069F4
:101730008007204602D0FFF7B7FF04E000F094F8DE
:10174000204600F039F92777E80616D5F00614D5BB
:1017500021686FF010000861082020772068C069B8
:1017600010F4407F204602D0FFF79EFF04E000F017
:101770007BF8204600F020F92777E80708D0F0072B
:1017800006D021686FF001000861204600F064F97E
:10179000280608D5300606D521686FF0800008615C
:1017A0002046FFF731FE680608D5700606D5216889
:1017B0006FF040000861204600F06CF9A8060AD5D9
:1017C000B00608D521686FF0200008612046BDE80A
:1017D000F041FFF71ABEBDE8F081000010B586B0F9
:1017E000002100910191029103911A4C03681A495A
:1017F00002221A48A34219D18B6943F008038B6176
:101800008969039201F0080104913021CDE90012A9
:101810006946FFF76FF91248416821F4406141F0D1
:10182000E06141F40061416006B010BD0D4CA3427F
:10183000FAD18B6943F008038B618969039201F047
:1018400008010491C021CDE900126946FFF752F961
:10185000EAE700000004004000100240000C0140D4
:101860000000014000080040704770B5044690F841
:101870003C0000260D4601280FD0012084F83C00D2
:101880006AB1042A1DD0082A2FD00C2A3FD0012685
:10189000002084F83C00304670BD022070BD2068F6
:1018A00000F0E6FD2068816941F00801816120684F
:1018B000816921F004018161206881692A691143ED
:1018C00011E0206800F0FCFD2068816941F40061AE
:1018D00081612068816921F480618161206881696A
:1018E0002A6941EA02218161D2E7206800F014FEF2
:1018F0002068C16941F00801C1612068C16921F017
:101900000401C1612068C1692A69114311E020689E
:1019100000F02EFE2068C16941F40061C1612068B9
:10192000C16921F48061C1612068C1692A6941EA05
:101930000221C161ACE710B5040003D094F83D006A
:1019400010B107E0012010BD002084F83C002046C3
:1019500000F01EF8022084F83D00211D206800F0F0
:101960002BFD012084F8460084F83E0084F83F00F7
:1019700084F8400084F8410084F8420084F8430071
:1019800084F8440084F8450084F83D00002010BD30
:1019900008B500680649884208D10648C16941F087
:1019A0000201C161C06900F00200009008BD0000A2
:1019B00000040040001002407047000010B50446CB
:1019C000022249B104290ED0082913D094F841000D
:1019D000012816D0012010BD94F83E000128F9D14D
:1019E00084F83E200FE094F83F000128F2D184F8FB
:1019F0003F2008E094F840000128EBD184F8402013
:101A000001E084F841200122206800F011FD0F4917
:101A10002068884203D1426C42F40042426420684C
:101A2000884208D0B0F1804F05D00949884202D0E1
:101A30000849884204D1816801F00701062903D0D2
:101A4000016841F001010160002010BD002C01403F
:101A5000000400400008004010B500680B498842AF
:101A60000FD10B4CE08801280CD0A088401C80B21C
:101A7000A08000F053FFA088B0F57A7F01D3012049
:101A8000E08010BDBDE8104001F036B8000800400D
:101A9000000000207047704770470000F8B50168EB
:101AA00004460868CA684B6910F00F0F4FF0000534
:101AB00059D003F0010602F49077374365D0C1078F
:101AC00005D0D10503D5616C41F001016164410786
:101AD00005D5D90703D0616C41F00201616481072B
:101AE00005D5D90703D0616C41F004016164010799
:101AF00007D502F02001314303D0616C41F00801A9
:101B00006164616C00293AD0800604D5900602D544
:101B1000204600F0A1FD20684069616CC0F3801090
:101B2000090700D460B3204600F06FFD20684069CB
:101B3000400621D52068143050E8001F21F04001F4
:101B400040E80012002AF5D1E06BA8B16D4941636D
:101B5000E06BFEF761FE002811D0E06B416B01B035
:101B6000BDE8F040084783060FD593060DD5204603
:101B7000BDE8F84000F070BD2046FFF78DFFF8BDCE
:101B80002046FFF789FF6564F8BD266B2023012EF0
:101B90007CD1C6067AD5D60678D508684868009004
:101BA00048694FF00206400640D5E16B086840687E
:101BB0000004000CE8D0A28D8242E5D9E085886956
:101BC00020282DD020680C3050E8001F21F48071AF
:101BD00040E80012002AF5D12068143050E8001FB8
:101BE00021F0010140E80012002AF5D120681430EC
:101BF00050E8001F21F0400140E80012002AF5D112
:101C000084F84230256320680C3050E8001F21F032
:101C1000100140E80012002AF5D1E06BFEF7D8FD74
:101C20006663A08DE18D401A81B22AE0A08DE18D1E
:101C3000401A81B2E08D0028A6D00029A4D02268E5
:101C40000C3252E8000F20F4907042E80007002F99
:101C5000F5D12068143050E8002F22F0010240E84E
:101C60000027002FF5D184F84230256320680C301E
:101C700050E8002F22F0100240E80023002BF5D19D
:101C800066632046FFF707FFF8BDFFE705062BD583
:101C9000150629D594F841002128F5D1A068B0F5A2
:101CA000805F01D12069B0B1206A411C21622168A6
:101CB00000784860E08C401E0004000CE084E3D112
:101CC0002068C16821F08001C1602068C16841F0CE
:101CD0004001C160D8E7206A0088C0F3080048606E
:101CE000206A801C2062E5E74006CDD55006CBD5A2
:101CF000CA68204622F04002CA6084F8413000F0F1
:101D0000EDF8C1E7FB25000870B5040004D094F895
:101D10004100002510B106E0012070BD84F840505C
:101D2000204600F023F8242084F841002068C16890
:101D300021F40051C160204600F0F0FC20680169E8
:101D400021F4904101612068416921F02A0141613B
:101D50002068C16841F40051C1606564202084F8A6
:101D6000410084F842006563002070BD30B585B045
:101D70000024009401940294039400681849884256
:101D80002CD11848816941F480418161816901F455
:101D900080410491816941F0040181618069124DA3
:101DA00000F0040004904FF40070009002200190B5
:101DB0000320039069462846FEF79CFE2815CDE9CE
:101DC0000004694628460294FEF794FE002211465C
:101DD0002520FEF7F1FF2520FEF7E0FF05B030BD1E
:101DE00000380140001002400008014090F84230E5
:101DF000202B01D00220704721B11AB100230363C8
:101E000000F0E8BC0120704710B50068084988421E
:101E10000CD101231A460749074800F00FF8BDE826
:101E20001040012203490448FFF7E0BF10BD000045
:101E30000038014002000020980100202DE9F843FD
:101E4000044690F84100984616460D46202802D0D8
:101E50000220BDE8F88385B17EB1002060642120B6
:101E600084F84100FEF73CFFA6848146E684A06822
:101E70002027B0F5805F02D003E00120E9E7206968
:101E800010B12E4600250EE000260CE080212046F1
:101E900000F0BBFCA8B9C6B116F8010B2168486078
:101EA000E08C401EE084E08C4B464FF00002CDF801
:101EB00000800028EAD14FF04001204600F0A5FC48
:101EC00040B184F841700320C3E735F8020BC0F33A
:101ED0000800E3E784F841700020BAE77047FEE7A6
:101EE000FEB5002534480095019532490295016000
:101EF00089158160057301240475082606614FF475
:101F000060214560C0E90641FEF706FB08B172B6E4
:101F1000FEE7CDE90054694627480295FEF77AFAB4
:101F200008B172B6FEE70094022469462248019483
:101F3000FEF770FA08B172B6FEE700940324694612
:101F40001D480194FEF766FA08B172B6FEE70094E8
:101F50000424694618480194FEF75CFA08B172B689
:101F6000FEE700940524694613480194FEF752FAEF
:101F700008B172B6FEE70094062469460E48019443
:101F8000FEF748FA08B172B6FEE7009407246946E6
:101F900009480194FEF73EFA08B172B6FEE7CDE9B2
:101FA000004669460448FEF735FA002801D072B6AB
:101FB000FEE7FEBD002401409000002070B586B011
:101FC000002420480094019402940394816941F014
:101FD00010018161816901F010010491816941F072
:101FE00020018161816901F020010491816941F042
:101FF00004018161816901F004010491816941F06A
:10200000080181618069104E00F008004FF400550E
:102010000490002229463046FEF75CFE0120009520
:10202000CDE901040224694630460394FEF762FDBF
:10203000C020CDE90004694604480394FEF75AFD28
:1020400006B070BD001002400010014000080140C1
:1020500010B586B0002417480094019402940394AC
:1020600004941349059401604721C0E901144FF617
:10207000FE71C0E9031444618461FFF7FBF908B104
:1020800072B6FEE74FF48050009069460948FFF7AA
:102090009DFA08B172B6FEE7049404A905480594B8
:1020A000FFF7B4F9002801D072B6FEE706B010BD04
:1020B000002C0140C000002010B58AB00024079415
:1020C0001C2168460894FEF77FF81A4818490160F9
:1020D0004721C0E9011440F2E731C0E903148461EB
:1020E000FFF729FC08B172B6FEE7079407A911486B
:1020F0000894FFF78BF908B172B6FEE76020CDE9CE
:1021000000040294002269460A480494FFF7ADFBDC
:1021100008B172B6FEE7042269460648FFF7A5FB40
:1021200008B172B6FEE70348FFF758FB0AB010BDCE
:10213000000400400801002010B58EB00024079470
:10214000089409940A940B941C2168460C94FEF799
:102150003BF82248204901604721C0E9011440F2C0
:10216000E731C0E903148461FFF784F908B172B65E
:10217000FEE74FF48050079007A91848FFF726FAAA
:1021800008B172B6FEE71548FFF7D5FB08B172B685
:10219000FEE70B940BA911480C94FFF737F908B12F
:1021A00072B6FEE76020CDE9000402940022694681
:1021B0000A480494FFF759FB08B172B6FEE70422FF
:1021C00069460648FFF751FB08B172B6FEE70348BF
:1021D000FFF704FB0EB010BD0008004050010020C6
:1021E000FEE7FEE72DE9F05F0F46066A04469B46D0
:1021F00092463146384600F04BFE616900F0AAFC79
:10220000606105463846216900F040FF314600F024
:1022100015FD0146A06800F03BFE064629466068B1
:1022200000F036FE05463946206800F031FE2946AA
:1022300000F090FC314600F08DFCD4F81C8005467F
:102240004FF0FF31404600F0C8FF8146294600F0BC
:1022500081FC00F0B5FD06464846294600F016FF11
:1022600000F0AEFD0546304600F0C6FD414600F0E8
:10227000DBFE03D2E06900F0A3FD0646304600F025
:10228000BBFDA16900F0D0FD03D2A06900F098FD6C
:102290000646284600F0B0FDE16900F0C5FE03D215
:1022A000E06900F08DFD0546284600F0A5FDA16916
:1022B00000F0BAFD03D2A06900F082FD054617F0D8
:1022C000FF4F03D1206910F0FF4F0BD00848874221
:1022D00001D100263546CAF80060CBF800502761CE
:1022E000BDE8F09FE06900F06BFD06463546F2E779
:1022F00000007A442DE9F0410446DDE90765069FB8
:10230000016098462946104600F0C2FD60602946EB
:10231000404600F093FCA0600020E0602061C4E92A
:102320000507C4E90765BDE8F08170477047FEF70F
:10233000DDBC30B593B028216846FDF745FF142178
:102340000AA8FDF741FF002501200F951095119572
:10235000010412958DE8230004904FF4E010CDE9BC
:102360000810022407946846FEF7AAFE08B172B668
:10237000FEE70AA90F2081E831004FF48060CDE923
:102380000D0502210AA8FEF7BFFD08B172B6FEE7EF
:102390004FF4004011900F940FA8FEF73FFD002866
:1023A00001D072B6FEE713B030BD70470148FFF7A9
:1023B0007CB9000050010020F0B50268194B1A4C9E
:1023C0001A4D4FF08047984205D0B84203D0A04242
:1023D00001D0A84203D122F070064A6832439842E5
:1023E00005D0B84203D0A04201D0A84203D122F4C4
:1023F0004074CA6822434C6922F080022243026082
:102400008A68C2620A688262984201D109690163DE
:10241000012141610169C90703D0016921F001016E
:102420000161F0BD002C01400004004000080040A4
:1024300010B501F01F030121046A99408C43046226
:10244000016A9A401143016210BD10B5846842EAE6
:10245000032224F47F440A432243826010BD826831
:1024600022F070020A4342F00701816070470000C9
:1024700030B5036A026A22F001020262426884698E
:1024800024F073050C682C4323F002058B682B4362
:102490000A4DA8420BD123F00805CB6822F4407204
:1024A0002B434D6923F0040315438A692A43426094
:1024B000846149684163036230BD0000002C014023
:1024C00030B5026A036A23F010030362436884692B
:1024D0000D6824F4E64444EA05248D6822F02002C5
:1024E00042EA05120B4DA8420ED1CD6822F08002BF
:1024F00042EA05124D6923F4406343EA85038D697E
:1025000022F0400243EA85034360846149688163A5
:10251000026230BD002C014030B5036A026A22F429
:10252000807202624268C46923F4007324F0730568
:102530000C682C438D6843EA05230C4DA8420ED14C
:10254000CD6823F4006343EA05234D6922F4405229
:1025500042EA05128D6923F4806342EA0512426063
:10256000C4614968C163036230BD0000002C0140B2
:1025700030B5046A026A22F4805202624268C3697A
:102580000D6823F4E64343EA05238D6824F40054E0
:1025900044EA0534064DA84204D14D6922F4804234
:1025A00042EA85124260C36149680164046230BD39
:1025B000002C014010B5036A046A24F0010404628F
:1025C000846924F0F00444EA021423F00A020A4366
:1025D0008461026210BD10B5036A046A24F010041D
:1025E0000462846923F0A00324F4704444EA0232B4
:1025F00043EA01118261016210BD10B5406A0021F9
:10260000C185C184FFF748FA10BD01680C3151E85B
:10261000002F22F4907241E80023002BF5D10168CD
:10262000143151E8002F22F0010241E80023002B71
:10263000F5D1016B012909D101680C3151E8002F56
:1026400022F0100241E80023002BF5D1202180F870
:10265000421000210163704708B590F8421022290A
:1026600001D0022008BD82684FF480539A4201D104
:10267000016921B1816A9A421BD04AB10AE002681D
:10268000816A5268C2F308020A80816A891C08E0E4
:10269000026972B10268526802F07F020A70816AB0
:1026A000491C8162C18D491E0904090CC18503D0F2
:1026B0001BE002685268F1E70168CA6822F0200254
:1026C000CA600168CA6822F48072CA6001684A69F7
:1026D00022F001024A61202180F84210002141636A
:1026E000026B012A03D0FFF78FFB002008BD0163B6
:1026F00001680C3151E8002F22F0100241E800235C
:10270000002BF5D101680A68D20602D50A6849682B
:102710000091818DFFF7BFF9E7E7000070B504462F
:1027200000680169E26821F44051114301612169A7
:10273000A0680843616908432168CA6841F20C63D4
:102740009A430243CA6020684169A26921F440713A
:10275000114341611E492068884202D1FEF77AFC8C
:1027600001E0FEF767FC00EBC00101EB00126068BE
:1027700064218000B2FBF0F3B3FBF1F36FF01806B5
:102780007343B2FBF0F5B2FBF0F605EB83053223A1
:1027900003EB0515B5FBF1F5B6FBF1F605F0F00519
:1027A00005EB0615B2FBF0F6B2FBF0F0B0FBF1F072
:1027B0006FF01802504306EB800003EB0010B0FBF3
:1027C000F1F0216800F00F002844886070BD00001F
:1027D0000038014081628285C28500214164222146
:1027E00080F84210016921B10168CA6842F4807220
:1027F000CA6001684A6942F001024A610068C16822
:1028000041F02001C160002070472DE9F84398464F
:1028100017460D460446089E24E0701C22D0FEF7A1
:102820005FFAA0EB0800B0421AD8CEB12068C168A8
:10283000490717D5802D15D0402D13D00168C94305
:1028400009070FD401680025406800902046FFF773
:10285000DCFE0820606484F840500120BDE8F88365
:102860000320FBE72068006835EA000004D0002060
:10287000B842D2D00020F1E70120F9E70148FFF784
:102880000DB9000098010020FEE70907090E002895
:1028900004DB00F1E02080F80014704700F00F0026
:1028A00000F1E02080F8141D7047000070B5184C4E
:1028B0000020E060A060174940F6DE5231F8103089
:1028C00093420BD900EBC003A56803EB001305EBA3
:1028D00083036433A360E3685B1CE360401C80B245
:1028E0000828EBD3A068E16890FBF1F0C0F5E17037
:1028F0002061E068082808D0E068002804D1064874
:10290000006900F05DFA206170BD4FF47A70FAE75B
:102910000000002050000020E001002070B51549A3
:102920000446082201F15000FDF7CCFE11480022B8
:1029300000F1300130F8125051F822302B4441F8A8
:102940002230521CD2B2082AF4D3B4F57A7F0FD3C6
:102950000022084D1046203551F82230B3FBF4F325
:1029600025F8123041F82200521CD2B2082AF3D3C3
:1029700070BD0000400000200EB5FEF7BFF9FFF764
:10298000D8FCFFF71BFB4548416941F0010141615B
:102990004069002200F00100009011460B20FEF774
:1029A0000BFA0B20FEF7FAF9FFF79AFAFFF7C4FBD0
:1029B000FFF74EFBFFF780FB3A48394900240160DE
:1029C0004FF41651C0E901140C21C460C0E9044160
:1029D0008461C461FFF798F908B172B6FEE7314827
:1029E000D838FEF79FFD2F4800219038FEF7E6FF0C
:1029F0002C4800214838FEF7E1FF2A48042190388E
:102A0000FEF7DCFF274804214838FEF7D7FF2549A9
:102A1000642090390A6850630968886321484838FF
:102A200001684C63006884634FF4FA60FEF750F865
:102A30001C484838FEF79EFD1B481C490094CDE910
:102A4000011018481A4B1B4A1B494830FFF752FC2B
:102A500014480A2348301422C46018494838FFF744
:102A6000EDF9164901221A390E48FFF7BFF9134C48
:102A700001251C3C114901221A390A48FFF7B6F911
:102A8000207830B1A0780028F4D0257000F034F818
:102A9000F0E70021084600F013F8EBE700100240D1
:102AA00000380140980100206F12833A0000FA4379
:102AB000000070410AD7A33C3333733F1C00002051
:102AC0000C4A10B500231468002803DA6363126807
:102AD000906302E060631068836306484830002911
:102AE000026803DA53630068816310BD51630068B4
:102AF000836310BD0801002010B5134C134A6078A1
:102B000002F11001401C6070002000BF32F810304C
:102B100021F81030401CC0B20828F7D3FFF7C6FEDA
:102B2000206900F069F9084B014618331A1F08485C
:102B3000FFF758FBD4E90510FFF7C2FF607846287D
:102B400001D30020607010BD000000204000002074
:102B5000E001002090EA010F48BF81F0004100F140
:102B60009C82421A3CBF801A89184FEAD0524FF01B
:102B70007F4C1CEA410FA2EBD15318BF9CEA026FB5
:102B800000F03B804FF0004C4CEA00204CEA012161
:102B900021FA03FC10EB0C0C1ED202F1FF325FEAAB
:102BA0001C2040EBC25038BF70471CF07F0F4FEA2B
:102BB000400C18BFBCF17F4F38BF7047C3F12003F2
:102BC000994008BF20F00100BCF17F4F38BF70472B
:102BD000A0F1C04000F023BA4FEA3C00000A40EBED
:102BE000C25028BF1CF0FF0F4FEA400CE6D018BFC0
:102BF000BCF17F4F38BF7047EAE79CEA026F05D00F
:102C000010EA5C0F08BF00F00040704710B500F0FC
:102C1000C0F900BF64FBBE3E014800F0ACBA00BF83
:102C20000000C07F401058BFC0F14040491058BF5D
:102C3000C1F140418142EFF3008070474FF47F0CB7
:102C40001CEAD0121EBF1CEAD11392EA0C0F93EAC1
:102C50000C0F00F0858090EA010F48BF42F48072AB
:102C600040F4000C41F400002CF07F4120F07F4044
:102C700000B58142A2EB03020FF2081CACEB504EF0
:102C8000C0F100009EF800E04FEA4E0E00FB0EFC83
:102C900038BF49004FEA2C1C02F5FA020CFB0EF378
:102CA0004FEACE1E4FEA112C4FEAC1210EEB635EB4
:102CB00042EB22420EFB0CFC4FEA1C5300FB0311BB
:102CC0004FEA112C4FEA01310EFB0CFC4FEADC4CB1
:102CD00000FB0C11C14228BF09184CEB03335DF80F
:102CE00004EB10EB410143EBC250B2F57C0F38BF4F
:102CF000704729D512F0F00F1CBF00F1C04000F062
:102D000000407047008182838485868788898B8C08
:102D10008D8E8F919293959697999A9C9D9FA0A244
:102D2000A3A5A7A8AAACAEB0B2B3B5B7B9BCBEC094
:102D3000C2C5C7C9CCCED1D4D7D9DCDFE2E6E9EC35
:102D4000F0F3F7FAFE0000004FEA400C0CF1807C33
:102D5000BCF17E4F28BF7047B0F1C04000F05FB9B2
:102D600090EA010F0CEAD11348BF42F48072624529
:102D700038BF634507D213F47F0F16D080EA0100F5
:102D800000F00040704710B500F003F9097EFC3EEA
:102D900000F005B880EA010000F00040704780EACA
:102DA000010000F0004000F03AB912F47F0F04BFB8
:102DB0000248704780EA010000F031B90000C07F8E
:102DC00041000B0ED3F19E0208D950F400034FEAE4
:102DD000032323FA02F048BF4042704710B500F0C9
:102DE000D8F800BF49922480002070476FF000425D
:102DF00082EA20007047000010F0004148BF4042C6
:102E0000B0FA80F310FA03F2C3F19D030BD051EA3C
:102E1000C35101EB1220530638BF704700F1010087
:102E200008BF20F00100704750EA010C00F1138048
:102E30001CF5000F58BFBCF5000F01D48842704745
:102E400007D710F5000F58BF11F5000F15D48842B1
:102E50007047894270471CF5000F04D5BCF5000F80
:102E6000F7D5814270474FF0807C1CEB400F38BF94
:102E70001CEB410F01D28142704710B500F089F878
:102E8000922449004FF000504FF08051FFF7CABE26
:102E90004FF47F0C1CEAD0121EBF1CEAD11392EA39
:102EA0000C0F93EA0C0F00F0478090EA010F48BF27
:102EB00042F480724FF0004C4CEA00204CEA0121B1
:102EC00002EB0302A0FB0113A2F50002002918BFC8
:102ED00043F001035B0028BF4FEA330342EB224279
:102EE0005FEA132C4CEBC2502EBFBCEB436FB2F524
:102EF0007C0F70474FEA036CBCF1004F08BF20F015
:102F00000100B2F57C0F38BF70470BD582F0FF028D
:102F100012F5803FC8BF704700F1C040D8BF00F035
:102F20000040704700F5000C5FEA4C0C48BF70474A
:102F3000B0F1C04000F073B890EA010F0CEAD11371
:102F400048BF42F48072624538BF634504D280EACC
:102F5000010000F00040704710B500F01AF800BF03
:102F60008900013E00F007B800F009B85FEA410CA3
:102F70005FEA1C6C08D080EA010000F050B85FEAFC
:102F8000400C5FEA1C6CF6D14FF00040A0F58000C9
:102F900070470EF1020E2EF0030E5EF8044B244231
:102FA00004D44FEA4102B2F17F4F11D84FEA4003F7
:102FB000B3F17F4F0CD80ED14FEAD07CB2F17F4FE6
:102FC0000CEB4C0C0CF1020C08BF4CEBD17C04E078
:102FD0004FF0080C01E04FEAD17C0CEB4C0324FAD3
:102FE00003F404F00704B4F1040C06D20EEB840CD5
:102FF000BDE810404CF0010C6047DFE80CF007081A
:1030000002024FF00040A0F5800010BD08464200CB
:1030100018BFD2F1807288BF00F0004010BDFF21C0
:1030200041EAD050C005704751EA000C00F113800E
:103030001CF5000F58BFBCF5000F01D4814270474A
:1030400007D711F5000F58BF10F5000F15D48142B6
:103050007047894270471CF5000F04D5BCF5000F7E
:10306000F7D5884270474FF0807C1CEB410F38BF8A
:103070001CEB400F01D28842704780EA010081EAD0
:10308000000180EA0100FFF7F8BE000090EA010F9E
:1030900048BF81F000413FF564AD421A04D882F088
:1030A0000042A0EB020011444FEAD0524FF07F4C97
:1030B0001CEA410FA2EBD15318BF9CEA026F4AD021
:1030C0004FF0004C4CEA00204CEA012121FA03FCAD
:1030D000B0EB0C0C0FD412F0FE0F36D05FEA4C00B0
:1030E0001DD5001240EBC25038BF70471CF03F0F97
:1030F00018BF70470BE0A2F101025FEA1C2040EB11
:10310000C25038BF70471CF07F0F18BF7047C3F123
:103110002003994014BF401E20F001007047800832
:103120004FEA122308BF7047B0FA80FCA2EB0C02F2
:10313000CCF1280C60FA0CF093EA122F04BF00EBDC
:10314000C25070474FEAC3707047130A5FEADC1041
:1031500008BF7047F6E79CEA026F04D010EA5C0FE4
:1031600008BF0020704710B5FFF713FF40DFF63EA1
:1031700081F0004070470CF00F03092B08BF0820B6
:1031800000F051800A2B0BD0082B18BF704708BFE6
:103190001CF0400F0AD04FF000004FF000017047C4
:1031A0001CF0400F18BF4FF0004070471CF0100F8C
:1031B00008D020F0704300F07F4242EAD3014FEA8A
:1031C0004370704700F0604021F07F4242EA000205
:1031D00001F07F4040EA727070474FF0FF0212EA40
:1031E000D0521CBF92F0FF038B42C2BFD14200EB12
:1031F000C1507047002A0AD0002B0BD0002900F0E4
:103200000040A4BF40F0FE4040F40000704700F0D2
:103210000040704743024FF00B0C18BF4CF0806C1D
:103220007FF4FAAC70471CF4801F11D01CF4E02F1F
:1032300003D06FEACC31490070474FF04050EFF3B4
:10324000008222F0704242EA000282F30088704756
:103250004FF0000070470102020304050607080949
:103260000A0B0C0D0E0F10100000000000000000F3
:10327000010203040607080900000000010203041C
:10328000A0320008000000204000000028010008D3
:10329000E0320008400000206808000044010008F7
:1032A000000000000000000000000000000000001E
:1032B00000000000000000000000000053544D33E7
:1032C000322048656C6C6F204D616E21210D0A0023
:1032D00001000000100000000000000000127A0051
:04000005080000ED02
:00000001FF
